:020000040800F2
:10000000D004002095160008490900084B09000893
:100010004F090008530900085709000800000000B4
:100020000000000000000000000000005B09000864
:100030005D090008000000005F0900086109000870
:10004000AF160008AF160008AF160008AF1600087C
:10005000AF160008AF160008AF160008AF1600086C
:10006000AF160008AF160008AF160008AF1600085C
:10007000AF160008AF160008AF160008AF1600084C
:10008000AF160008AF160008AF160008AF1600083C
:10009000AF160008AF160008AF1600086309000885
:1000A000AF16000865090008AF160008AF16000873
:1000B000AF160008AF160008AF160008AF1600080C
:1000C000AF160008AF160008AF160008AF160008FC
:1000D000AF160008970C0008AF160008AF1600080E
:1000E000AF160008AF160008AF160008AF160008DC
:1000F000BB0B0008AF160008AF160008AF160008CB
:10010000AF160008AF160008AF160008AF160008BB
:10011000AF160008AF160008AF160008AF160008AB
:10012000AF160008AF160008AF160008AF1600089B
:10013000DFF80CD002F0D6FF004800476F08000837
:10014000D004002070B504460D464021FE4802F060
:1001500066FFE0B2FC49091D088000BFFA4800882C
:1001600000F040000028F9D0204670BD10B50A24E8
:10017000F6480078012864D18021F54801F0FDFBA4
:1001800068BB0120F34908700020F3490860F34878
:10019000007840B908460368F1480268F1480168F0
:1001A000F1A002F0B1FFF348007830B14FF40071D4
:1001B000F14801F0EFFB012804D1F0480068401C31
:1001C000EE490860ED480068A04204DD0020EC49DB
:1001D0000870EA4908600120E649087006E000203E
:1001E000DC490870E3490870E44908604FF4807105
:1001F000D74801F0C2FBE8B90120E2490870E248A3
:10020000007828B14FF40071DB4801F0C3FB20B93E
:10021000DE480068401CDD490860DC480068A042F8
:1002200004DD0020D6490870D84908600120D6496D
:10023000087006E00020D3490870D3490870D349FC
:100240000860D3480078012864D14102C04801F019
:1002500094FBE8B90120CF490870CF48007828B155
:100260004FF48071C44801F095FB20B9CB48006879
:10027000401CCA490860C9480068A04204DD00204B
:10028000C7490870C54908600120C349087006E0E5
:100290000020C0490870C0490870C04908604FF488
:1002A0008061AB4801F069FB68BB0120BD49087063
:1002B0000020AB490860A948007840B9A648036807
:1002C00008460268A7480168A7A002F01DFFA348DE
:1002D000007830B14FF48071A74801F05BFB012832
:1002E00004D1B1480068401CAF490860AE480068BE
:1002F000A04204DD0020AA490870AB490860012033
:100300009649087006E00020A649087093490870D5
:10031000A5490860A5480078012862D1C1028C482F
:1003200001F02BFB60BB0120A149087000208D4922
:100330000860A048007840B9874803688848026888
:100340000846016888A002F0DFFE9A48007828B1CC
:100350008021894801F01EFB012804D196480068DD
:10036000401C9549086094480068A04204DD0020C4
:10037000924908709049086001208E49087006E093
:1003800000208B4908708B4908708B4908604FF436
:1003900080516F4801F0F1FAE0B9012088490870F6
:1003A0008848007820B18021734801F0F3FA20B921
:1003B00085480068401C8449086083480068A04262
:1003C00004DD00207D4908707F49086001207D49D7
:1003D000087006E000207A4908707A4908707A4966
:1003E000086010BD10B54FF40071634801F0DFFAEA
:1003F0004FF48071604801F0DAFA80215E4801F024
:10040000D6FA01205E4908706C490870644908708A
:10041000002054490860524908604F490860012192
:100420006A4802F067F90121694802F063F9012185
:10043000684802F05FF910BD10B54FF48051444890
:1004400001F09BFA48B94FF40071414801F095FA68
:1004500018B98021484801F0AAFA4FF480513C486D
:1004600001F08BFA50B94FF48061394801F085FAF8
:1004700020B94FF48071404801F09BFA4FF40061BD
:10048000334801F07AFA48B94FF48061304801F0FE
:1004900074FA18B98021384801F08BFA4FF40061E2
:1004A0002B4801F06AFA50B94FF40071284801F066
:1004B00064FA20B94FF480712F4801F078FA802156
:1004C000234801F05AFA20B94FF400712A4801F08C
:1004D00070FA4FF480711E4801F04FFA20B94FF4C2
:1004E0000071254801F063FA01202549087033495D
:1004F00008702B49087010BD10B5374800681949BD
:100500000968884207DD80211B4801F052FA012169
:10051000324801F04CFA30480068124909688842B4
:1005200007DA8021144801F042FA01212B4801F03A
:100530003EFA294800680B490968884203D1012125
:10054000264801F036FA4BE0003801402400002034
:100550000018014018000020780000202100002031
:1005600074000020700000207025647825647925CF
:10057000647A00001E000020000C014044000020AE
:1005800005000020190000201F0000204800002066
:10059000250000201A000020200000204C00002030
:1005A000040000201B000020500000202600002036
:1005B0001C00002022000020540000200300002026
:1005C0001D0000202300002058000020002C0140C6
:1005D00000140040001000402800002000100140DE
:1005E000C3480068C3490968884208DD4FF4807138
:1005F000C14801F0DEF90221C04801F0D8F9BC4839
:100600000068BC490968884208DA4FF48071BA482A
:1006100001F0CDF90221B94801F0C9F9B4480068E8
:10062000B4490968884203D10221B44801F0C1F9F4
:10063000AF480068AF490968884208D1B0480068EF
:10064000B0490968884202D10020AF49087010BD46
:1006500010B5AE480078012804D10121A74801F067
:10066000A6F903E00121A54801F0A3F9A848007804
:10067000012804D10221A14801F099F903E00221E7
:100680009E4801F096F9A3480078012804D104217E
:100690009A4801F08CF903E00421984801F089F9A7
:1006A00010BD0146002901DA484270470846FCE7C0
:1006B0002DE9F0419848007800287DD097480068DF
:1006C00000287AD1964800680028FAD19548006839
:1006D000012806D002281AD003282ED0042858D189
:1006E00041E091480068451E90480068441C802104
:1006F000814801F05EF94FF400717F4801F059F92B
:100700008948006810B902208649086041E086489F
:100710000068451E85480068441E8021764801F027
:1007200048F94FF40071744801F041F97F480068BE
:1007300010B903207B4908602BE07B480068451C0A
:100740007A480068441E80216B4801F030F94FF46C
:100750000071694801F02BF97348006810B9042052
:100760007049086015E070480068451C6F480068D3
:10077000441C8021604801F01AF94FF400715E4872
:1007800001F017F96948006810B90120654908604F
:1007900000BF00BF05FB05F1644A1268634B1B688C
:1007A00002FB0311624A1268614B1B6802FB1310C3
:1007B000FFF777FF074601E04DE056E05A49096828
:1007C000494304FB04115A4A1268594B1B6802FB47
:1007D0001310FFF766FF804605FB05F104FB0411CB
:1007E000534A1268524B1B6802FB1310FFF759FF64
:1007F0000646B7420BDC474509DC0121002000F02A
:10080000B8F9494805604948006848490860B84552
:100810000BDCB04509DC0121022000F0AAF94248B6
:1008200000684149086041480460BE420DDC46450D
:100830000BDC0121002000F09CF90121022000F0D6
:1008400098F9394805603948046001203149087039
:100850002E49087009E036480068334908600020D6
:100860003249086001202F490860BDE8F08100F09E
:10087000F3FB4FF4E13000F039FC00F0D8FD00F05C
:1008800081FC00F0EFFB00F01DFC00F004FCFFF722
:10089000A9FD2BE08021274801F06FF810B9012055
:1008A000254908704FF48061224801F066F810B9BC
:1008B0000120224908704FF400611E4801F05DF8E4
:1008C00010B901201E4908701E480078012801D186
:1008D000FFF7B2FD0C480078012801D1FFF70CFEAC
:1008E000FFF7E6FEFFF742FCFFF7B2FED2E700009B
:1008F0002C00002074000020000C0140001001407A
:10090000280000207000002040000020030000208C
:1009100004000020050000200100002084000020C9
:100920008C0000205C0000203400002038000020F3
:100930003C00002000180140240000202500002079
:100940002600002000000020704700BFFEE700BF27
:10095000FEE700BFFEE700BFFEE770477047704745
:100960007047704710B50121FD4802F08CF900284E
:100970007ED00121FA4802F097F9FA48006805286C
:1009800004DA0121F84801F012F803E00121F648E9
:1009900001F00FF8F5480068052805DA4FF480519A
:1009A000F34801F004F804E04FF48051F04801F0FE
:1009B00000F8F0480068052804DA0121EE4800F04C
:1009C000F6FF03E00121EC4800F0F3FFEB4800786C
:1009D000012803D0EA480068002804DDE1480068E7
:1009E000401CE0490860E7480078012803D0E64849
:1009F0000068002804DDDD480068401CDB49086011
:100A0000E2480078012803D0E1480068002804DDAE
:100A1000D8480068401CD7490860DE4800780128A3
:100A20002FD1D04800680A282BDBD5480068401E2B
:100A3000D349086008460068002801DC00200860EF
:100A40000020C84908604FF48051D34800F095FF5A
:100A5000B8B14FF40061D04800F08FFF88B1802119
:100A6000C54800F08AFF38B9CC480068401C00E057
:100A70006CE0CA49086004E0C8480068401EC749E5
:100A80000860C748007801282ED1B84800680A28B5
:100A90002ADB0020B5490860BB480068401EBA49FF
:100AA000086008460068002801DC002008604FF458
:100AB0000071B94800F061FFB0B14FF48061B648F1
:100AC00000F05BFF80B14FF48071AB4800F055FF40
:100AD00028B9B4480068401CB249086004E0B14835
:100AE0000068401EAF490860AF48007801282DD14A
:100AF000A04800680A2829DB00209E490860A44815
:100B00000068401EA249086008460068002801DC11
:100B1000002008604FF480719F4800F02EFFA8B1BC
:100B200080219D4800F029FF80B14FF40071924868
:100B300000F023FF28B99D480068401C9B490860CD
:100B400004E09A480068401E9849086010BD20B132
:100B5000012805D0022809D105E0884A117006E075
:100B6000884A117003E0894A117000E000BF00BF9D
:100B7000704720B101280BD002281BD111E00022C0
:100B80007E4B1A707E4A11600022764B1A6012E08A
:100B900000227C4B1A707C4A11600022734B1A6051
:100BA00009E00022794B1A70794A11600022714BDA
:100BB0001A6000E000BF00BF70470EB501217C48FD
:100BC00002F061F800283CD00121794802F06CF86D
:100BD00078480068401C774908600846006846214C
:100BE00090FBF1F201FB120088B973480078734959
:100BF0000978734A1278CDE9002102907148037890
:100C0000714802787148017871A002F07DFA694854
:100C10000068322190FBF1F201FB120040B96348F9
:100C20000368604802685D4801686DA002F06CFAD4
:100C30006048006840F6AC51884202DB00205D4904
:100C400008600EBD0146A1F12B000F2821D2DFE87C
:100C500000F01C201E2020080A0C0E10121416187A
:100C60001A00002070470120FCE70220FAE7032069
:100C7000F8E70420F6E70520F4E70620F2E707206E
:100C8000F0E70820EEE70920ECE70B20EAE70C206C
:100C9000E8E70A20E6E770B540F22551534802F034
:100CA000C7F9002856D040F22551504802F0EAF921
:100CB0004E4802F03DF9C4B2232C0ED04C484D49A9
:100CC000096844544B480068401C4A49086008467B
:100CD0000068092801DD09200860232C3AD1444826
:100CE0000078362837D008DC30280DD0312833D0B2
:100CF000322832D0352831D1EBE067282FD06D284B
:100D00007ED07028F7D125E139484078302808D1C5
:100D10002948007801280CD08021174800F049FEAE
:100D200007E026480078012803D08021124800F00F
:100D30003EFE2F488078302863D100201549087086
:100D400000210846FFF703FF00202B4908702B49BC
:100D500008705DE058E1D4E05BE08AE050E13FE1FB
:100D6000002C014090000020000801409400002069
:100D70000014014098000020000C01407F0000207A
:100D800084000020800000208800002081000020D6
:100D90008C0000200300002000180140700000209B
:100DA00004000020740000200500002078000020CE
:100DB000003401409C0000201D0000201C00002089
:100DC0001B0000201A00002019000020180000203D
:100DD000532564256425642564256425640000008A
:100DE0007025647825647925647A00000038014014
:100DF00064000020A000002000000020400000202F
:100E0000F2E001208149087001210020FFF79FFED8
:100E1000F6E07F484078302809D17E4800780128E4
:100E20000ED04FF480717C4800F0C3FD08E07B4891
:100E30000078012804D04FF48071774800F0B7FDA6
:100E40007348807830280CD1002075490870002143
:100E50000120FFF77CFE002072490870724908707B
:100E600006E001206E49087001210846FFF76FFE79
:100E7000C6E067484078302809D16C4800780128DE
:100E80000ED04FF40071644800F093FD08E068480C
:100E90000078012804D04FF400715F4800F087FD0E
:100EA0005B48807830280CD100206249087000210E
:100EB0000220FFF74CFE00205A4908705A4908707A
:100EC00006E001205B49087001210220FFF73FFE88
:100ED00096E04F484078302809D1002051490870E9
:100EE00054490870494908704D49087008E00120CC
:100EF0004C4908704F4908704449087048490870C7
:100F00007EE043484078302819D100204A490870D3
:100F10004A4800684A49086000204A490860454933
:100F200008703A4908700121FFF711FE01210846B7
:100F3000FFF70DFE01210220FFF709FE09E0012065
:100F40003D4908703D4800683D49086000203D4922
:100F5000086055E02E494878FFF774FE4FF47A7127
:100F600000FB01F32A498878FFF76CFE00EBC00113
:100F700001EB001003EB80032549C878FFF762FE00
:100F800000EB800003EB400321490879FFF75AFE8C
:100F90001D181F494879FFF755FE4FF47A7100FB81
:100FA00001F31B498879FFF74DFE00EBC00101EB0F
:100FB000001003EB80031649C879FFF743FE00EBEE
:100FC000800003EB40031249087AFFF73BFE1E182E
:100FD0001D4805601D4806600120134908700FE098
:100FE00001201B49087000BF80210B4800F0E1FC84
:100FF0000120064908700C210020FFF7BAFD00BF50
:1010000000BF00201349086070BD000003000020ED
:10101000640000201A000020000C01401B0000208A
:1010200004000020000000204000002019000020E3
:101030001800002005000020010000203C000020D6
:101040003400002038000020280000202C00002060
:1010500002000020A000002010B54FF4A06000F0B6
:101060002BFB10BD08B50121082000F0AFFE4FF4A6
:101070007070ADF8000003208DF8020010208DF88C
:1010800003006946FE4800F0E5FB4FF47071FC4830
:1010900000F08FFC08BD08B50121102000F096FE7D
:1010A0000F20ADF8000003208DF8020010208DF80D
:1010B00003006946F34800F0CDFB0F21F14800F032
:1010C00078FC08BD08B50121402000F07FFE4FF4F8
:1010D000FC50ADF8000003208DF8020048208DF888
:1010E00003006946E84800F0B5FB08BD10B586B0BE
:1010F0000446012144F2040000F068FE4FF4007041
:10110000ADF8140003208DF8160018208DF8170094
:1011100005A9DE4800F09EFB4FF48060ADF8140096
:1011200004208DF8170005A9D84800F093FB25206E
:101130008DF8000002208DF801008DF802000120DA
:101140008DF80300684600F0BCFA01940020ADF869
:101150000800ADF80A00ADF80C00ADF810000C2046
:10116000ADF80E0001A9CA4801F0E5FD012240F2E8
:101170002551C74801F077FE0121C54801F067FEFF
:1011800006B010BD1FB50121C80200F01FFE4720A8
:10119000ADF800000020ADF802002720ADF80400F3
:1011A0006946BC4800F04AFF19208DF80C00012068
:1011B0008DF80D008DF80E008DF80F0003A800F0DB
:1011C00080FA0121B34801F05BFD01224121B148C1
:1011D00001F0ABFA0121480300F0F8FD4720ADF81B
:1011E00000000020ADF8020040F2E730ADF8040046
:1011F0006946A94800F022FF2C208DF80C0003203E
:101200008DF80D0001208DF80E008DF80F0003A859
:1012100000F057FA0121A04801F032FD01224121DE
:101220009D4801F082FA01219A4801F063FA0121F8
:10123000994801F05FFA1FBD30B589B005460C46EC
:101240000121042000F0CFFD0121212000F0BEFD8E
:101250000121080300F0CFFB4FF47040ADF82000EF
:1012600018208DF8230003208DF8220008A98B4850
:1012700000F0F0FAADF81850ADF814400020ADF8C9
:101280001A00ADF8160005A9854800F0D7FE6020C9
:10129000ADF804000120ADF806000020ADF80C0008
:1012A00001A97F4800F007FF01A97D4800F045FF34
:1012B00001A97B4800F08EFF01A9794800F0D5FF15
:1012C0000821774801F046FB0821754801F04BFBE7
:1012D0000821734801F054FB0821714801F059FBC3
:1012E00001216F4801F006FAC8216D4801F09AFC0F
:1012F000C8216B4801F098FCC821694801F096FCB0
:10130000C821674801F094FC0121084600F06BFDFC
:101310000121042000F05AFD0320ADF82000182020
:101320008DF8230003208DF8220008A9574800F00B
:1013300091FAADF81850ADF814400020ADF81A003D
:10134000ADF8160005A94FF0804000F077FE602050
:10135000ADF804000120ADF806000020ADF80C0047
:1013600001A94FF0804000F0A6FE01A94FF0804097
:1013700000F0E3FE0821C80601F0ECFA0821C806D7
:1013800001F0F1FA0121880701F0B4F9C821C8067B
:1013900001F048FCC821C80601F046FC01210220EA
:1013A00000F021FD0121082000F010FD0320ADF820
:1013B000200018208DF8230003208DF8220008A9B2
:1013C0002F4800F047FAADF81850ADF8144000204F
:1013D000ADF81A00ADF8160005A9324800F02EFE4F
:1013E0006020ADF804000120ADF806000020ADF843
:1013F0000C0001A92B4800F0EDFE01A9294800F0DE
:1014000034FF0821274801F0BBFA0821254801F0E4
:10141000C0FA0121234801F06DF9C821214801F0EB
:1014200005FCC8211F4801F003FC09B030BD08B518
:1014300001212C2000F0CAFC4FF48050ADF80000D0
:1014400010208DF8030003208DF802006946134830
:1014500000F000FA0120ADF8000069460B4800F0EA
:10146000F9F96946064800F0F5F94FF480510B4848
:1014700000F09DFA0121054800F099FA012113E0DE
:10148000000C01400010014000180140000801401C
:1014900000380140002C014000340140001401409C
:1014A0000008004000040040014800F080FA08BD38
:1014B000000C01400CB50020019000906C480068C1
:1014C00040F480306A49086000BF6948006800F451
:1014D000003000900198401C0190009818B90198C4
:1014E000B0F5A06FF1D16248006800F4003010B18F
:1014F0000120009001E0002000900098012843D1D5
:101500005C48006840F010005A49086008460068CE
:1015100020F0030008600846006840F00200086000
:101520005348406852494860084640684860084649
:10153000406840F4806048600846406820F47C10B1
:1015400048600846406840F4E81048600846006873
:1015500040F08070086000BF4548006800F00070EF
:101560000028F9D04248406820F003004049486014
:101570000846406840F00200486000BF3C484068B0
:1015800000F00C000828F9D10CBD10B5FFF792FF50
:1015900010BD10B53648006840F0010034490860BD
:1015A00008464068344908403149486008460068A8
:1015B000324908402E4908600846006820F480201F
:1015C00008600846406820F4FE0048604FF41F00A1
:1015D0008860FFF7DAFF4FF000602949086010BD0E
:1015E00010B5002100200022214B5B6803F00C01A4
:1015F00021B1042906D0082928D107E0214B224C2B
:10160000236027E01F4B204C236023E0184B5B68CE
:1016100003F47010164B5B6803F48032022303EB73
:10162000904022B9194B4343174C23600DE0104BF7
:101630005B6803F4003323B1144B4343124C236023
:1016400003E0104B4343104C236003E00D4B0E4C62
:10165000236000BF00BF064B5B68C3F303130C4C51
:10166000E15C094B1B68CB40074C236010BD0000B8
:1016700000100240002002400000FFF8FFFFF6FECD
:1016800008ED00E000127A00A400002000093D00EF
:10169000A80000200648804706480047FEE7FEE70E
:1016A000FEE7FEE7FEE7FEE7FEE7FEE7FEE7FEE712
:1016B000931500083101000831490143314A116096
:1016C000704770B5002100230F22C47804B32D4C5D
:1016D000246804F4E064C4F5E064210AC1F1040361
:1016E000CA40447804FA03F1847814402143090184
:1016F000254C0678A155047804F01F050124AC4060
:1017000005786D11AD0005F1E025C5F8004109E04F
:10171000047804F01F050124AC401C4D06787611B6
:1017200045F8264070BD1A4A0A400243154B1B1F5C
:101730001A60704739B1134A121D12680243114BE7
:101740001B1D1A6006E00F4A121D126882430D4BE2
:101750001B1D1A607047042808D14FF0E021096969
:1017600041F004014FF0E022116107E04FF0E02169
:10177000096921F004014FF0E02211617047000077
:101780000000FA050CED00E000E400E080E100E07C
:1017900080FFFF1F10B50446CC48844208D10121C8
:1017A000042000F02DFB0021042000F029FB46E07E
:1017B000C748844208D10121082000F021FB002104
:1017C000082000F01DFB3AE0C248844208D1012104
:1017D000102000F015FB0021102000F011FB2EE07E
:1017E000BD48844208D10121202000F009FB0021DE
:1017F000202000F005FB22E0B848844208D10121F6
:10180000402000F0FDFA0021402000F0F9FA16E037
:10181000B348844208D10121802000F0F1FA002170
:10182000802000F0EDFA0AE0AE48844207D10121A1
:10183000801500F0E5FA0021A01500F0E1FA10BDD6
:1018400010B50121084600F0DBFA0021012000F06C
:10185000D7FA10BD2DE9F0410246002500260020F0
:1018600000230024002791F803C00CF00F0591F825
:1018700003C00CF0100CBCF1000F03D091F802C0B3
:101880004CEA050591F800C0BCF1000F31D0146896
:1018900000202BE04FF0010C0CFA00F3B1F800C06F
:1018A0000CEA03069E4220D183004FF00F0C0CFA85
:1018B00003F7BC4305FA03FC4CEA040491F803C0A7
:1018C000BCF1280F06D14FF0010C0CFA00FCC2F855
:1018D00014C00AE091F803C0BCF1480F05D14FF0E5
:1018E000010C0CFA00FCC2F810C0401C0828D1D32F
:1018F0001460B1F800C0BCF1FF0F34DD5468002063
:101900002EE000F1080C4FF0010808FA0CF3B1F8D2
:1019100000C00CEA03069E4221D183004FF00F0C59
:101920000CFA03F7BC4305FA03FC4CEA040491F8F3
:1019300003C0BCF1280F05D100F1080C08FA0CF81F
:10194000C2F8148091F803C0BCF1480F07D100F130
:10195000080C4FF0010808FA0CF8C2F81080401C7F
:101960000828CED35460BDE8F0814FF6FF710180A6
:10197000022181700421C1707047024600209368E3
:101980000B400BB1012000E0002070470146886841
:1019900080B2704702460020D3680B400BB1012093
:1019A00000E0002070470146C86880B270470161BE
:1019B0007047416170470AB1016100E041617047C1
:1019C000C16070474FF480320A4382618161826155
:1019D00082698269704702460020434B18684FF6BF
:1019E0008073184040EA021008433F4B186070476C
:1019F0003E49C8617047F0B50A4600230024002123
:101A0000002500F00046B6F1004F02D1364EF169D4
:101A100001E0354E7168C0F3034583B200F440160F
:101A2000B6F5401F08D121F070612F4E766826F080
:101A300070662D4F7E6012E000F48016B6F5801FB0
:101A400006D1032606FA05F4A14341F0706106E0D1
:101A5000460D360103FA06F6B14341F0706122B13A
:101A6000460D360103FA06F6314300F00046B6F1A2
:101A7000004F02D11C4EF16101E01B4E7160F0BDC0
:101A800030B500228B071C0F0F2303FA04F2164B0C
:101A900008338C1053F824309343134C08348D10C2
:101AA00044F8253023468C1053F824308C07240F3B
:101AB00000FA04F423430C4C08348D1044F825300C
:101AC00030BD0A49DC310860704700000008014061
:101AD000000C0140001001400014014000180140BA
:101AE000001C014000200140000001400000204295
:101AF000DF48006840F00100DD49086008464068A2
:101B0000DC490840DA49486008460068DA4908407C
:101B1000D74908600846006820F48020086008461D
:101B2000406820F4FE0048604FF41F008860704752
:101B3000CF49096821F48031CD4A11601146096806
:101B400021F480211160B0F5803F03D0B0F5802FE3
:101B50000ED106E0C649096841F48031C44A1160DB
:101B600007E0C349096841F4A021C14A116000E0BF
:101B700000BF00BF704710B50146002200230020BF
:101B80004A11012A02D1BA4C236806E0022A02D186
:101B9000B74C236A01E0B64C636A01F01F020124CE
:101BA00094401C400CB1012000E0002010BD38B56D
:101BB000002000900024002500BF3120FFF7DBFF4C
:101BC00005460098401C00900098B0F5A06F01D029
:101BD000002DF2D03120FFF7CEFF08B1012400E044
:101BE0000024204638BD01460020A14A106820F09C
:101BF000F80040EAC10010607047A04908607047D3
:101C0000024600209A4B586820F47C1042EA0103F7
:101C10001843974B586070479849086670470146CB
:101C20000020934A506820F003000843506070473A
:101C30008F48406800F00C007047014600208C4A35
:101C4000506820F0F00008435060704701460020C3
:101C5000874A506820F4E0600843506070470146AE
:101C60000020834A506820F4605040EAC100506070
:101C7000704729B17E4A527A02437D4B5A7204E082
:101C80007B4A527A82437A4B5A7270477B49D831E9
:101C90000860704701460020754A506820F44040B3
:101CA0000843506070470021714A20321170704A19
:101CB00082F82010012802D004280AD104E0012172
:101CC0006B4A2032117005E00521694A20321170FB
:101CD00000E000BF00BF7047694908607047644971
:101CE000096A0143624A11627047654944390860D4
:101CF000704730B500210022002400235C4D6D6840
:101D000005F00C0121B1042905D0082923D105E0F3
:101D10005C4D056022E05B4D05601FE0544D6D6831
:101D200005F47012524D6D6805F48034022505EB00
:101D300092421CB9544D554305600BE04C4D6D6803
:101D400005F400351DB1504D5543056002E04D4D81
:101D50005543056002E04B4D056000BF00BF444D98
:101D60006D6805F0F0010909484D6B5C0568DD40C0
:101D700045603F4D6D6805F4E061090A434D6B5CB9
:101D80004568DD4085603A4D6D6805F46051C90ACB
:101D90003E4D6B5C4568DD40C560354D6D6805F4B2
:101DA0004041890B3A4D6B5CC568B5FBF3F50561A5
:101DB00030BD29B12E4A526902432D4B5A6104E0CD
:101DC0002B4A526982432A4B5A61704729B1284AEB
:101DD00092690243264B9A6104E0254A9269824344
:101DE000234B9A61704729B1214AD2690243204BA3
:101DF000DA6104E01E4AD26982431D4BDA61704702
:101E000029B11B4AD2680243194BDA6004E0184A30
:101E1000D2688243164BDA60704729B1144A1269BE
:101E20000243134B1A6104E0114A12698243104BBA
:101E30001A61704712494039086070470F49C864F9
:101E400070470B49C87170470948406A40F080707C
:101E500007494862704701460020054A92680A40D7
:101E60000AB1012000E000207047014988727047E4
:101E7000001002400000FFF8FFFFF6FE00004242A3
:101E80008004424200127A0000093D00B8000020A0
:101E9000C800002010B50446FE48844208D1012144
:101EA000C014FFF7ADFF0021E014FFF7A9FFC4E065
:101EB000B4F1804F08D101210846FFF7AEFF0021A1
:101EC0000120FFF7AAFFB8E0F348844208D10121BE
:101ED0000220FFF7A2FF00210220FFF79EFFACE0E7
:101EE000EE48844208D101210420FFF796FF00212B
:101EF0000420FFF792FFA0E0E948844208D10121C5
:101F00000820FFF78AFF00210820FFF786FF94E0F2
:101F1000E448844208D101211020FFF77EFF002110
:101F20001020FFF77AFF88E0DF48844208D10121C2
:101F30002020FFF772FF00212020FFF76EFF7CE0DA
:101F4000DA48844208D101214014FFF759FF0021EB
:101F50006014FFF755FF70E0D548844209D1012194
:101F6000C804FFF74DFF00214FF40020FFF748FFA2
:101F700063E0D048844209D101210805FFF740FF02
:101F800000214FF48010FFF73BFF56E0CA4884421F
:101F900009D101214805FFF733FF00214FF400105C
:101FA000FFF72EFF49E0C548844208D101214020B7
:101FB000FFF733FF00214020FFF72FFF3DE0C0482F
:101FC000844208D101218020FFF727FF00218020D3
:101FD000FFF723FF31E0BB48844208D1012180157F
:101FE000FFF71BFF0021A015FFF717FF25E0B648FC
:101FF000844209D101210804FFF702FF00214FF4B8
:102000008030FFF7FDFE18E0B048844209D101217D
:102010004804FFF7F5FE00214FF40030FFF7F0FE13
:102020000BE0AB48844208D101218804FFF7E8FEA9
:1020300000214FF48020FFF7E3FE10BD002202884C
:10204000944B98420ED0994B98420BD0B0F1804FF0
:1020500008D0914B984205D0904B984202D0904BBB
:10206000984204D14FF68F731A404B881A438D4B18
:10207000984207D08C4B984204D04FF6FF431A4049
:10208000CB881A4302808B8883850B880385814B1C
:1020900098420BD0854B984208D08B4B984205D084
:1020A0008A4B984202D08A4B984201D10B7A038620
:1020B00001238382704770B5002400220023058C21
:1020C0004FF6FE7635400584028C8388048B4FF6EC
:1020D0008F752C40B51E2C400D882C43751E2A4050
:1020E0000D892A434D882A436A4DA8420BD06F4D73
:1020F000A84208D0744DA84205D0744DA84202D021
:10210000734DA84213D14FF6F7752A404D892A43E3
:102110004FF6FB752A408D882A434FF6FF652B400A
:102120004FF6FF552B408D892B43CD892B43838060
:102130000483CD888586028470BD70B5002400229A
:102140000023058C4FF6EF7635400584028C83889A
:10215000048B48F6FF752C404FF6FF452C400D8848
:102160004FF6FF7606EA05252C434FF6DF752A4029
:102170000D8906EA05152A434D8806EA05152A4306
:10218000444DA84202D0494DA8421DD14FF67F755B
:102190002A404D894FF6FF7606EA05152A434FF689
:1021A000BF752A408D8806EA05152A434FF6FF358C
:1021B0002B404FF2FF752B408D8906EA85052B4396
:1021C000CD8906EA85052B4383800483CD88058766
:1021D000028470BD70B5002400220023058C4FF6E8
:1021E000FF6635400584028C8388848B4FF68F759B
:1021F0002C404FF6FC752C400D882C434FF6FF55B4
:102200002A400D894FF6FF7606EA05252A434D88B8
:1022100006EA05252A431F4DA84202D0234DA842B5
:102220001DD14FF2FF752A404D894FF6FF7606EA21
:1022300005252A434FF6FF352A408D8806EA0525F5
:102240002A434EF6FF752B404DF6FF752B408D89C6
:1022500006EA05152B43CD8906EA05152B43838035
:102260008483CD888587028470BD70B500220023E9
:102270000024058C4EF6FF7635400584038C848857
:10228000828B48F6FF752A404FF6FF452A400D889D
:1022900020E00000002C0140000400400008004045
:1022A000000C0040001000400014004000340140C9
:1022B000004C014000500140005401400018004013
:1022C000001C00400020004000400140004401404C
:1022D000004801404FF6FF7606EA05252A434DF6F1
:1022E000FF752B400D8906EA05352B434D8806EA1C
:1022F00005352B43FA4DA84202D0FA4DA84208D129
:102300004BF6FF752C408D894FF6FF7606EA851552
:102310002C4384808283CD88A0F84050038470BD14
:10232000828B4FF2FF331A408283828B4FF6FF730A
:1023300003EA01231A4382837047F0B50C46154621
:10234000002200210026078C4EF6FF7C07EA0C07CE
:102350000784828B018C4FF6FF7707EA043640F63C
:10236000FF473A404FF6FF7707EA05273A434FF613
:10237000FF7707EA03373A43D94FB8420ED0D94F17
:10238000B8420BD0B0F1804F08D0D74FB84205D03B
:10239000D64FB84202D0D64FB84206D14DF6FF779D
:1023A000394046F48057394305E047F6FF57394036
:1023B00044F48057394382830184F0BD828B4FF609
:1023C000F3731A408283828B0A4382837047F0B58D
:1023D0000C461546002200210026078C4FF6FF6CA4
:1023E00007EA0C070784828B018C4FF6FF7707EA18
:1023F00004264FF60C773A404FF6FF7707EA0317AB
:102400002F433A43B64FB8420ED0B64FB8420BD026
:10241000B0F1804F08D0B44FB84205D0B34FB842A6
:1024200002D0B34FB84206D14FF6FF57394046F4B9
:102430008077394305E04FF2FF57394044F4807705
:10244000394382830184F0BD028B4FF2FF331A407F
:102450000283028B4FF6FF7303EA01231A430283C0
:102460007047F0B50C461546002200210026078C67
:102470004FF6EF7C07EA0C070784028B018C4FF6BE
:10248000FF7707EA041640F6FF473A404FF6FF771A
:1024900007EA03373A434FF6FF7707EA05273A433F
:1024A0008F4FB8420ED08F4FB8420BD0B0F1804F53
:1024B00008D08D4FB84205D08C4FB84202D08C4F17
:1024C000B84206D14FF6DF77394046F0100739435E
:1024D00005E04FF65F77394044F010073943028337
:1024E0000184F0BD028B4FF6F3731A400283028B16
:1024F0000A4302837047F0B50C46154600220021BE
:10250000068C4FF6FE773E400684028B018C4FF618
:102510000C7632407E1C06EA03162E433243704E80
:10252000B0420ED06F4EB0420BD0B0F1804F08D009
:102530006D4EB04205D06D4EB04202D06C4EB042EE
:1025400006D14FF6FD76314044F00106314305E0F7
:102550004FF6F576314044F00106314302830184A1
:10256000F0BD70B505460C465D4885420ED05D480D
:1025700085420BD0B5F1804F08D05B48854205D02D
:102580005A48854202D05A48854200D100E000BF37
:10259000208850B92389A28861882846FFF7ABFFBD
:1025A000E1882846FFF79EFF25E0208804280AD10D
:1025B0002389A28861882846FFF753FFE1882846CF
:1025C000FFF742FF17E0208808280AD12389A28854
:1025D00061882846FFF7FBFEE1882846FFF7EEFEFC
:1025E00009E02389A28861882846FFF7A6FEE188D2
:1025F0002846FFF795FE70BD2DE9F04105460C46D3
:1026000000260127608808B9022600E00026A0887D
:10261000012801D1022700E001272088A0B92389E1
:10262000A28861882846FFF766FFE1882846FFF701
:1026300059FF23893A4631462846FFF712FFE188C1
:102640002846FFF701FF13E02389A2886188284606
:10265000FFF707FFE1882846FFF7F6FE23893A4691
:1026600031462846FFF747FFE1882846FFF73AFF43
:10267000BDE8F0810A884B881A438B881A43CB88BF
:102680001A430B891A434B891A438B891A43A0F8C2
:10269000442070474FF6FF71818000210180C18086
:1026A0004180017270470021018041808180C1809A
:1026B000018141818181C181704700210180418078
:1026C000012181800021C1800181704700210180AA
:1026D00041808180C18001814181818170470000FA
:1026E000002C01400034014000040040000800407C
:1026F000000C004021B1028842F00102028004E097
:1027000002884FF6FE731A400280704731B1B0F86C
:10271000442042F40042A0F8442005E0B0F84420F0
:10272000C2F30E02A0F8442070471AB183890B430C
:10273000838102E083898B43838170478182704764
:1027400041EA0203A0F8483070471AB183890B436D
:10275000838102E083898B438381704701894FF62F
:10276000F8721140018170470A46002101894FF635
:102770008F73194011430181704730B504460D46EF
:1027800029462046FFF7F0FF208940F0070020810E
:1027900030BD2DE9F04104460D4616461F46602D1A
:1027A00006D13B46012231462046FFF75AFE05E09E
:1027B0003B46012231462046FFF79DFE2946204632
:1027C000FFF7D2FF208940F007002081BDE8F081AB
:1027D00030B50C4600210189C9B24FF6FF7505EAF4
:1027E0000325154325432943018130BD2DE9F041DF
:1027F00005460E4617469846002443463A4631465B
:102800002846FFF7E5FF2C894FF6F870044044F0A6
:1028100007044FF68F70044044F070042C81BDE82B
:10282000F081F0B504460D4616461F463B4632463B
:1028300029462046FFF7CCFF208940F480402081C4
:10284000F0BD0185828270470A46002101884FF65B
:102850008F731940114301807047F0B50C4615463F
:102860001E460021002200230189028B038C4FF6B3
:10287000F877394021434FF6FC473A4040F20117C0
:102880003A434FF6DD773B404FF6FF7707EA0617EE
:102890002F433B43018102830384F0BD0A4600219C
:1028A000018B4FF68F7319401143018370470A461D
:1028B0000021018B48F6FF7319404FF6FF7303EABE
:1028C00002231943018370470A460021818B4FF68A
:1028D0008F7319401143818370470A460021818B11
:1028E00048F6FF7319404FF6FF7303EA02231943BA
:1028F0008183704721B1028842F08002028004E0A7
:1029000002884FF67F731A400280704721B1828897
:1029100042F00402828004E082884FF6FB731A4082
:102920008280704721B1828842F00802828004E0F0
:1029300082884FF6F7731A408280704721B18288EF
:1029400042F00102828004E082884FF6FE731A4052
:10295000828070470A460021018B4FF6F7731940B9
:102960001143018370470A460021018B4FF2FF7328
:1029700019404FF6FF7303EA02231943018370479E
:102980000A460021818B4FF6F7731940114381836A
:1029900070470A460021818B4FF2FF7319404FF6B2
:1029A000FF7303EA02231943818370470A4600211B
:1029B000018B4FF6FB7319401143018370470A46A0
:1029C0000021018B4FF6FF3319404FF6FF7303EAE6
:1029D00002231943018370470A460021818B4FF679
:1029E000FB7319401143818370470A460021818B94
:1029F0004FF6FF3319404FF6FF7303EA02231943E2
:102A0000818370470A460021018B4FF67F7319407E
:102A10001143018370470A460021018BC1F30E0167
:102A20004FF6FF7303EA02231943018370470A46F6
:102A30000021818B4FF67F731940114381837047CA
:102A40000A460021818BC1F30E014FF6FF7303EAA2
:102A500002231943818370470A460021018C4FF6F7
:102A6000FD7319401143018470470A460021018C0F
:102A70004FF6F77319401143018470470A4600214D
:102A8000018C4FF6DF7319404FF6FF7303EA021310
:102A90001943018470470A460021018C4FF67F7369
:102AA00019404FF6FF7303EA02131943018470477C
:102AB0000A460021018C4FF6FF5319404FF6FF7371
:102AC00003EA02231943018470470A460021018C5E
:102AD0004FF2FF7319404FF6FF7303EA02231943C5
:102AE000018470470A460021018C4DF6FF7319409E
:102AF0004FF6FF7303EA023319430184704730B580
:102B0000002301248C40A3B2048C9C430484048CD5
:102B100002FA01F5ADB22C43048430BD30B5002378
:102B200004248C40A3B2048C9C430484048C02FAD9
:102B300001F5ADB22C43048430BD70B503460020CE
:102B400000241846183001258D40ACB21D8CA543D9
:102B50001D8409B1082909D100EB6100056825F041
:102B6000700505600568154305600EE00D1FC5F38F
:102B70004E052844056825F4E045056005684FF6D4
:102B8000FF7606EA02263543056070BD21B1028852
:102B900042F00202028004E002884FF6FD731A4000
:102BA0000280704721B1028842F00402028004E0F2
:102BB00002884FF6FB731A400280704721B1828869
:102BC00042F08002828004E082884FF67F731A40D0
:102BD0008280704702884FF6F7731A40028002889D
:102BE0000A430280704782884FF68F731A408280B2
:102BF00082880A438280704702894FF6F8731A4030
:102C0000028102890A430281704702894FF67F736D
:102C10001A40028102890A43028170478184704709
:102C2000818570478186704701877047818770472B
:102C3000A0F84010704702884FF6FF431A40028008
:102C400002880A43028070470146888E7047014619
:102C5000088F70470146888F70470146B1F84000E1
:102C600070470146888C70470146088D70470246C0
:102C70000020138A0B400BB1012000E000207047B8
:102C8000CA430282704730B5024600200023002468
:102C9000158A05EA0103958905EA010413B10CB10F
:102CA000012000E0002030BDCA43028270470000CE
:102CB00010B50446FB48844209D101218803FFF77F
:102CC0009FF800214FF48040FFF79AF832E0F64871
:102CD000844209D101214804FFF79FF800214FF4F5
:102CE0000030FFF79AF825E0F048844209D101212D
:102CF0008804FFF792F800214FF48020FFF78DF849
:102D000018E0EB48844209D10121C804FFF785F897
:102D100000214FF40020FFF780F80BE0E5488442E3
:102D200008D101210805FFF778F800214FF4801041
:102D3000FFF773F810BD2DE9F04786B005460E4643
:102D40000024A24600BFA1460027B08900B100BF01
:102D50002F462C8A4CF6FF700440F08804432C82E6
:102D6000AC894EF6F3100440B0883189084371896C
:102D700008430443AC81AC8A4FF6FF400440B0895D
:102D80000443AC8201A8FEF7B4FFC648874202D1D3
:102D9000DDF810A001E0DDF80CA0A88900F40040E7
:102DA00040B10AEBCA0000EB0A1031684900B0FBE1
:102DB000F1F807E00AEBCA0000EB0A10316889005D
:102DC000B0FBF1F86420B8FBF0F0040120096421A5
:102DD00001FB1089A88900F4004040B1322000EBCB
:102DE000C900B0FBF1F000F00700044308E0322016
:102DF00000EB09106421B0FBF1F000F00F00044378
:102E00002C8106B0BDE8F0874FF416510160002117
:102E10008180C18001810C21418100218181704725
:102E200010B502460020108A4FF2FF0318400B88AD
:102E30004C8823438C882343CC8823431843108237
:102E400010BD0021018041808180C180704721B187
:102E5000828942F40052828104E082894DF6FF7338
:102E60001A4082817047F0B50346002400260025F1
:102E7000002040F66A17B94200D100BF1846C1F3DE
:102E8000421401F01F06012707FA06F5012C01D1B3
:102E90000C3004E0022C01D1103000E014301AB1E3
:102EA00007682F43076002E00768AF430760F0BD83
:102EB0001AB1838A0B43838202E0838A8B43838225
:102EC0007047028A4FF6F0731A400282028A0A4360
:102ED0000282704782894FF2FF731A408281828991
:102EE0000A438281704721B1828942F002028281C5
:102EF00004E082894FF6FD731A4082817047028A8E
:102F00004FF6DF731A400282028A0A430282704738
:102F100021B1028A42F48042028204E0028A4BF626
:102F2000FF731A4002827047C1F308028280704723
:102F300001468888C0F308007047818941F001018B
:102F400081817047028BD2B20283028B42EA012256
:102F500002837047028B02F47F420283028B0A4392
:102F60000283704721B1828A42F02002828204E00B
:102F7000828A4FF6DF731A408282704721B1828ABB
:102F800042F01002828204E0828A4FF6EF731A4008
:102F90008282704721B1828A42F00802828204E074
:102FA000828A4FF6F7731A408282704721B1828974
:102FB00042F40042828103E08289C2F30E028281E0
:102FC000704721B1828A42F40062828204E0828AE0
:102FD0004FF2FF731A4082827047828A4FF6FB736A
:102FE0001A408282828A0A438282704721B1828A91
:102FF00042F00202828204E0828A4FF6FD731A4098
:103000008282704702460020B1F5007F00D100BFE8
:1030100013880B400BB1012000E00020704701F441
:103020000072B2F5007F00D100BFCA430280704732
:1030300070B50246002400230025002040F66A16E1
:10304000B14200D100BFC1F3421501F01F030126B8
:1030500006FA03F3012D02D19689334006E0022DD2
:1030600002D1168A334001E0968A33400C120126C1
:1030700006FA04F41688344013B10CB1012000E0C4
:10308000002070BD10B50022002340F66A14A14252
:1030900000D100BF0A1201249440A3B2DC43048093
:1030A00010BD0000003801400044004000480040CE
:1030B000004C00400050004030B50B460146002057
:1030C0002022012409E021FA02F59D4205D303FAEA
:1030D00002F5491B04FA02F52844151EA2F101026B
:1030E000F1DC30BD064C074D06E0E06840F001031E
:1030F00094E8070098471034AC42F6D3FDF71CF86B
:103100009C320008BC3200080FB4054B10B503A96F
:10311000044A029800F018F810BC5DF814FB000097
:1031200045010008CC00002002E008C8121F08C1B9
:10313000002AFAD170477047002001E001C1121F38
:10314000002AFBD1704700002DE9FF4F89B09B4654
:103150000446002506E025280BD05A460B999047D7
:10316000641C6D1C20780028F5D10DB02846BDE800
:10317000F08F0027B8460122474900E0074314F8C2
:10318000013F203B02FA03F00842F7D120782E28B5
:1031900019D114F8010F47F004072A280ED06FF058
:1031A0002F022078A0F1300109290CD808EB880102
:1031B00002EB410100EB0108641CF2E70A98641C71
:1031C00050F8048B0A9020780028CED0642808D0CC
:1031D000692806D075281ED05A460B9990476D1C59
:1031E00058E00A994FF00A0901C90A91002802DA49
:1031F00040422D2102E0390504D52B218DF8201005
:10320000012103E0F90704D02021F7E78A4608AE40
:103210000DE00021FAE70A994FF00A0901C90A9165
:10322000F7E74946FFF748FF303106F8011D00284F
:10323000F7D1ADEB060000F12009780701D44FF07B
:103240000108C84502DDA8EB090000E00020804627
:10325000002706E008A85A46C05D0B9990476D1CF0
:103260007F1C5745F6DB04E030205A460B99904707
:103270006D1CB8F10001A8F10108F5DC05E016F8B5
:10328000010B5A460B9990476D1CB9F10001A9F149
:103290000109F4DC641C65E709280100BC32000860
:1032A00000000020D0000000283100088C33000806
:1032B000D0000020000400003831000800000100A8
:1032C00000000000000000000000000000000000FE
:1032D00000000000000000000000000000000000EE
:1032E00000000000000000000000000000000000DE
:1032F000A00F000000000000A00F00000000000070
:1033000000000000000000000000000000000000BD
:1033100000000000000000000100000000000000AC
:1033200030303030303030303030000000000000BD
:103330000000000000000000010101010101000087
:10334000000000000000000000000000000000007D
:10335000000000000000000000000000000000006D
:1033600000A24A0400000000000000000102030463
:10337000060708090000000001020304010203041B
:0C3380000607080902040608000000000F
:0400000508000131BD
:00000001FF
