:020000040800F2
:10000000A004002001150008C1060008C30600086E
:10001000C7060008CB060008CF0600080000000055
:10002000000000000000000000000000D3060008EF
:10003000D506000800000000D7060008D906000811
:100040001B1500081B1500081B1500081B150008D0
:100050001B1500081B1500081B1500081B150008C0
:100060001B1500081B1500081B1500081B150008B0
:100070001B1500081B1500081B1500081B150008A0
:100080001B1500081B1500081B1500081B15000890
:100090001B1500081B1500081B150008DB060008CF
:1000A0001B150008DD0600081B1500081B150008BD
:1000B0001B1500081B1500081B1500081B15000860
:1000C0001B1500081B1500081B1500081B15000850
:1000D0001B150008A90B00081B150008A70B00083A
:1000E0001B1500081B1500081B1500081B15000830
:1000F0007B0800081B1500081B1500081B150008CD
:100100001B1500081B1500081B1500081B1500080F
:100110001B1500081B150008E70700086107000809
:100120001B1500081B1500081B1500081B150008EF
:10013000DFF80CD002F00CFF00480047E70500088C
:10014000A004002070B504460D464021FE4802F090
:100150009CFEE0B2FC49091D088000BFFA480088F7
:1001600000F040000028F9D0204670BD10B5F748D7
:100170000078012850D18021F54801F034FB18BBEC
:100180000120F44908700020F3490860F348007822
:1001900040B908460368F2480268F2480168F2A0D4
:1001A00002F0E8FEED48007830B14FF40071F148FC
:1001B00001F026FB012803D10421EF4801F02FFBB9
:1001C0000120E649087004E00020E2490870E34994
:1001D00008704FF48071DE4801F005FBB8B90120CA
:1001E000E6490870DC480068E5490860E5480078A1
:1001F00028B14FF40071DF4801F002FB18B9042167
:10020000DD4801F00CFB0120DE49087004E000200D
:10021000DA490870DB490870DB480078012854D1BE
:100220004102CB4801F0DFFAD8B90120D749087064
:1002300040F61840CA49086008460068D44908607A
:10024000D448007828B14FF48071CA4801F0D8FA38
:1002500018B90221C84801F0E2FA0120CD4908701E
:1002600004E00020C9490870CA4908704FF4806151
:10027000B74801F0B8FA18BB0120C7490870002040
:10028000B7490860C548007840B9B34803680846D4
:100290000268B4480168B4A002F06CFEBF48007860
:1002A00030B14FF48071B34801F0AAFA012803D1AC
:1002B0000221B14801F0B3FA0120B849087004E006
:1002C0000020B5490870B5490870B5480078012884
:1002D00052D1C1029E4801F086FA10BB0120B149FB
:1002E000087000209F490860AF48007840B99A48DC
:1002F00003689B480268084601689BA002F03AFE2A
:10030000A948007828B180219A4801F079FA01289B
:1003100003D10121984801F082FA0120A249087016
:1003200004E000209F4908709F4908704FF48051F5
:10033000874801F058FAD0B901209C49087040F66E
:10034000172088490860084600689949086099485C
:10035000007820B18021874801F052FA18B90121B4
:10036000854801F05CFA01209249087004E0002001
:100370008E4908708F49087010BD10B54FF4007198
:100380007C4801F04AFA04217B4801F046FA4FF418
:100390008071784801F041FA0221774801F03DFA76
:1003A0008021744801F039FA0121734801F035FACF
:1003B00000206C4908606A490860674908600121AB
:1003C0007D4802F0CDF801217C4802F0C9F80121F6
:1003D0007B4802F0C5F810BD10B54FF480515C4861
:1003E00001F001FA48B94FF40071594801F0FBF9E6
:1003F00018B980215F4801F010FA4FF48051544839
:1004000001F0F1F950B94FF48061514801F0EBF976
:1004100020B94FF48071574801F001FA4FF40061A0
:100420004B4801F0E0F948B94FF48061484801F0C9
:10043000DAF918B980214F4801F0F1F94FF4006161
:10044000434801F0D0F950B94FF40071404801F031
:10045000CAF920B94FF48071464801F0DEF98021D5
:100460003B4801F0C0F920B94FF40071414801F058
:10047000D6F94FF48071364801F0B5F920B94FF440
:1004800000713C4801F0C9F901213B4801F0C5F970
:100490000221394801F0C1F90421374801F0BDF9C2
:1004A00010BD10B5474800682E490968884207DD2D
:1004B0008021304801F0B3F901212F4801F0ADF956
:1004C0004048006827490968884207DA802129489E
:1004D00001F0A3F90121284801F09FF9394800688B
:1004E00020490968884203D10121234801F097F986
:1004F000354800681A490968884208DD4FF4807160
:100500001C4801F08CF902211B4801F086F92E48A5
:10051000006813490968884208DA4FF48071154869
:1005200001F07BF90221144801F077F926480068B0
:100530000B490968884203D102210F4801F06FF985
:1005400021480068064941E0003801401C000020B5
:100550000018014010000020480000201600002074
:10056000440000204000002070256478256479252F
:10057000647A0000000C01400010014011000020CE
:100580000C000020170000201D0000201200002099
:10059000080000201800002013000020190000208F
:1005A0001E000020140000201A000020150000206A
:1005B000040000201B000020002C0140001400401B
:1005C000001000402000002024000020096888421C
:1005D00008D12C4800682C490968884202D10020C3
:1005E0002A49087010BD00F043FC4FF4E13000F0E0
:1005F00089FC48214FF4C87000F07DFD00F0CEFC6E
:1006000000F03CFC00F06AFC00F051FCFFF7B5FE86
:1006100037E080211E4801F0E6F810B901201D499D
:1006200008704FF480611A4801F0DDF810B901201C
:10063000194908704FF40061154801F0D4F810B959
:1006400001201649087016480078012801D1FFF7EB
:10065000C3FE0E480078012801D1FFF722FF1148A0
:10066000007801280BD11048036810480268104830
:10067000016810A002F07EFC00200A490870FFF714
:1006800075FDC6E720000020400000202C0000205F
:10069000001801401C0000201D0000201E0000204A
:1006A0000000002002000020080000200C000020B4
:1006B000040000206725647825647925647A0000A9
:1006C000704700BFFEE700BFFEE700BFFEE700BFC8
:1006D000FEE77047704770477047704710B50121BB
:1006E000F84802F006FA002839D00121F54802F056
:1006F00011FA0121F44801F083F801282FD1F348C1
:10070000007801282BD0F2480078012827D0F14842
:10071000007820B38021F04801F072F828B9EF4842
:100720000068401CED49086004E0EC480068401E89
:10073000EA490860EA480068401CE9490860084640
:10074000006832280BDBE7480368E7480268E348A3
:100750000168E6A002F00EFC0020E149086010BD2F
:1007600010B50121E44802F0C4F900283AD0012173
:10077000E14802F0CFF90221D34801F041F8012805
:1007800030D1DE48007801282CD0DD4800780128DF
:1007900028D0DC48007828B34FF48071CE4801F0AF
:1007A0002FF828B9D0480068401CCF49086004E001
:1007B000CD480068401ECC490860D3480068401C02
:1007C000D14908600846006832280BDBC548036839
:1007D000C5480268C1480168C4A002F0CBFB0020F4
:1007E000C949086010BD10B50121C84802F081F95F
:1007F00000283AD00121C54802F08CF90421B24802
:1008000000F0FEFF012830D1C148007801282CD02B
:10081000C0480078012828D0BF48007828B34FF49A
:100820000071AD4800F0ECFF28B9AE480068401CEC
:10083000AC49086004E0AB480068401EA949086064
:10084000B6480068401CB549086008460068322870
:100850000BDBA4480368A4480268A0480168A3A071
:1008600002F088FB0020AD49086010BD0146002958
:1008700001DA484270470846FCE72DE9FE430121B2
:10088000A74802F036F9002873D00121A44802F0ED
:1008900041F9A4480068401CA24908600846006865
:1008A000322814DB8A48007888490978934A1278FC
:1008B000CDE9002102909248037896480278944846
:1008C000017899A002F056FB0020964908609A48EA
:1008D000007800287ED001217B4800F0A0FF042191
:1008E000794800F09CFF4FF4C871944802F0D0F8AA
:1008F0004FF4C871924802F0CFF800208649087082
:10090000744908708F480068012806D002281AD060
:1009100003282FD0042859D142E08B480068451E97
:100920008A480068441C80216B4800F078FF4FF42F
:100930000071694800F073FF8348006810B9022015
:100940008049086042E080480068451E7F48006892
:10095000441E8021604800F062FF4FF400715E4841
:1009600000F05BFF7948006810B903207549086002
:100970002CE0A5E074480068451C74480068441EDB
:100980008021554800F049FF4FF40071524800F0B3
:1009900044FF6D48006810B904206A49086015E0FA
:1009A00069480068451C69480068441C80214A4821
:1009B00000F033FF4FF40071474800F030FF634808
:1009C000006810B901205F49086000BF00BF05FB47
:1009D00005F100E05DE05D4A12685C4B1B6802FBBC
:1009E00003115B4A881AFFF741FF07465649096819
:1009F000494304FB0411564A881AFFF737FF804623
:100A000005FB05F104FB0411514A881AFFF72EFF7C
:100A10000646B7420EDC47450CDCC821474802F0C9
:100A200037F801202B49087047480560474800689F
:100A300046490860B8450EDCB0450CDCC82140488A
:100A400002F02AF80120344908703F4800683E4906
:100A500008603E480460BE4212DC464510DCC821F6
:100A6000364802F015F8C821354802F015F8012083
:100A700018490870284908703348056033480460F5
:100A80000121114800F0C9FE04210F4800F0C5FE05
:100A900016E0C821294801F0FBFFC821284801F0D1
:100AA000FBFF01201C4908700A4908704FF4FA60E6
:100AB0002549086000202549086001202149086077
:100AC000BDE8FE83002C014000100140140000200E
:100AD000150000204C000020000C014040000020C8
:100AE0005800002048000020440000207025647851
:100AF00025647925647A000000140040130000206A
:100B0000120000204E0000205C0000200010004079
:100B100010000020110000204D0000206000002087
:100B200000340140640000205325642564256425B9
:100B300064256425640000000100002000080040D6
:100B400000040040680000205000002054000020F5
:100B500000093D000146A1F12B000F2821D2DFE85A
:100B600000F01C201E2020080A0C0E10121416186B
:100B70001A00002070470120FCE70220FAE703205A
:100B8000F8E70420F6E70520F4E70620F2E707205F
:100B9000F0E70820EEE70920ECE70B20EAE70C205D
:100BA000E8E70A20E6E7704770B540F225519D4816
:100BB00002F074F900287DD040F22551994802F0E6
:100BC00097F9984802F0EAF8C4B22146954802F035
:100BD000E1F8232C0ED09448944909684454934872
:100BE0000068401C9149086008460068092801DD3A
:100BF00009200860232C5DD18B480078352870D0FF
:100C000006DC30280BD0312831D032282ED15AE0E2
:100C1000362867D067287DD07028F7D1B2E08248A7
:100C20004078302808D18248007801280CD08021F3
:100C3000804800F0F4FD07E07F480078012803D0E9
:100C400080217C4800F0E9FD77488078302809D180
:100C500001217A4800F0E3FD0020794908707949C4
:100C6000087003E00121754800F0D7FDD4E06E481C
:100C70004078302809D17448007801280ED04FF40C
:100C800080716C4800F0CBFD08E0704800780128C6
:100C900004D04FF48071674800F0BFFD624880784F
:100CA00030280BD10221654800F0B9FD00206449CD
:100CB000087000E0B4E06349087003E002215F4877
:100CC00000F0ABFDA8E05848407830280BD16048D0
:100CD0000078012810D04FF40071564800F09FFDB5
:100CE0000AE01DE030E05B480078012804D04FF4B2
:100CF0000071504800F091FD4B48807830280AD1AF
:100D000004214E4800F08BFD00204D4908704D49EC
:100D1000087004E07CE00421484800F07EFD7BE0A0
:100D200041484078302807D1002045490870072104
:100D3000424800F074FD06E0012041490870072197
:100D40003E4800F06AFD67E03748407830280ED111
:100D50000020414908704FF4FA60404908600020C3
:100D60003F4908600521354800F059FD09E00120A0
:100D7000394908704FF4FA60384908600020384952
:100D8000086049E028494878FFF7E4FE4FF47A719B
:100D900000FB01F324498878FFF7DCFE00EBC0017B
:100DA00001EB001003EB80031F49C878FFF7D2FE68
:100DB00000EB800003EB40031B490879FFF7CAFEF4
:100DC0001D1819494879FFF7C5FE4FF47A7100FBE9
:100DD00001F315498879FFF7BDFE00EBC00101EB77
:100DE000001003EB80031049C879FFF7B3FE00EB56
:100DF000800003EB40030C49087AFFF7ABFE1E1896
:100E0000184805601848066001200E49087003E084
:100E100001201649087000BF00BF00200349086088
:100E200070BD000000380140340000206C0000203C
:100E300015000020000C01401400002000100140AB
:100E4000000000202C0000201200002013000020D1
:100E500011000020100000200100002050000020A0
:100E60005400002020000020240000200200002068
:100E700010B54FF4A06000F055FB10BD08B501217E
:100E8000082000F0D9FE4FF47070ADF80000032088
:100E90008DF8020010208DF803006946FE4800F02E
:100EA0000FFC4FF47071FC4800F0B9FC08BD08B5A8
:100EB0000121102000F0C0FE0F20ADF8000003203B
:100EC0008DF8020010208DF803006946F34800F009
:100ED000F7FB0F21F14800F0A2FC08BD08B5012185
:100EE000402000F0A9FE4FF4FC50ADF800000320B4
:100EF0008DF8020048208DF803006946E84800F0AC
:100F0000DFFB08BD10B586B00446012144F20400A1
:100F100000F092FE4FF40070ADF8140003208DF83D
:100F2000160018208DF8170005A9DE4800F0C8FB50
:100F30004FF48060ADF8140004208DF8170005A967
:100F4000D84800F0BDFB25208DF8000002208DF868
:100F500001008DF8020001208DF80300684600F0C2
:100F6000E6FA01940020ADF80800ADF80A00ADF8EB
:100F70000C00ADF810000C20ADF80E0001A9CA4815
:100F800001F00FFE012240F22551C74801F0A1FEF9
:100F90000121C54801F091FE06B010BD1FB5012129
:100FA000C80200F049FE4720ADF800000020ADF86F
:100FB000020040F2E730ADF804006946BB4800F09B
:100FC00073FF19208DF80C0001208DF80D008DF8AD
:100FD0000E008DF80F0003A800F0A9FA0121B34814
:100FE00001F084FD01224121B04801F0D4FA012131
:100FF000202000F02EFE4720ADF800000020ADF8C4
:10100000020040F2E730ADF804006946A84800F05D
:101010004BFF37208DF80C0002208DF80D008DF865
:101020000E0001208DF80F0003A800F080FA0122C5
:1010300041219F4801F0AFFA0121102000F009FE84
:101040004720ADF800000020ADF8020040F2E73084
:10105000ADF804006946974800F026FF36208DF869
:101060000C0003208DF80D008DF80E0001208DF886
:101070000F0003A800F05BFA012241218D4801F026
:101080008AFA0121480300F0D7FD4720ADF800009F
:101090000020ADF8020040F2F310ADF804006946FC
:1010A000854800F001FF2C208DF80C0003208DF8FE
:1010B0000D0001208DF80E008DF80F0003A800F040
:1010C00036FA01217C4801F011FD012241217A48C4
:1010D00001F061FA0121754801F042FA01217448DA
:1010E00001F03EFA0121744801F03AFA01217148F9
:1010F00001F036FA1FBD30B589B005460C46012116
:10110000042000F0A6FD0121212000F095FD012121
:10111000080300F0A6FB4FF47040ADF82000182043
:101120008DF8230003208DF8220008A9634800F001
:10113000C7FAADF81850ADF814400020ADF81A0009
:10114000ADF8160005A95E4800F0AEFE6020ADF8CF
:1011500004000120ADF806000020ADF80C0001A944
:10116000574800F0DEFE01A9554800F01CFF01A918
:10117000534800F065FF01A9514800F0ACFF082179
:101180004F4801F01DFB08214D4801F022FB0821CA
:101190004B4801F02BFB0821494801F030FB0121AD
:1011A000474801F0DDF9C821454801F071FCC8212C
:1011B000434801F06FFCC821414801F06DFCC82193
:1011C0003F4801F06BFC0121084600F042FD01217F
:1011D000042000F031FD0320ADF8200018208DF828
:1011E000230003208DF8220008A92E4800F068FA99
:1011F000ADF81850ADF814400020ADF81A00ADF865
:10120000160005A94FF0804000F04EFE6020ADF8BA
:1012100004000120ADF806000020ADF80C0001A983
:101220004FF0804000F07DFE01A94FF0804000F0BB
:10123000BAFE0821C80601F0C3FA0821C80601F069
:10124000C8FA0121880701F08BF9C821C80601F00E
:101250001FFCC821C80601F01DFC0121022000F07E
:10126000F8FC0121082000F0E7FC0320ADF8200085
:1012700018208DF8230003208DF8220008A90648C5
:1012800000F01EFAADF81850ADF814400020ADF88B
:101290001A00ADF8160015E0000C014000100140E6
:1012A000001801400008014000380140002C0140B6
:1012B00000140040001000400034014000140140C0
:1012C0000008004005A9154800F0EEFD6020ADF8CB
:1012D00004000120ADF806000020ADF80C0001A9C3
:1012E0000E4800F0ADFE01A90C4800F0F4FE082104
:1012F0000A4801F07BFA0821084801F080FA012130
:10130000064801F02DF9C821044801F0C5FBC821A9
:10131000024801F0C3FB09B030BD000000040040EA
:101320000CB50020019000906C48006840F48030BB
:101330006A49086000BF6948006800F40030009006
:101340000198401C0190009818B90198B0F5A06F61
:10135000F1D16248006800F4003010B10120009023
:1013600001E0002000900098012843D15C4800680B
:1013700040F010005A4908600846006820F0030059
:1013800008600846006840F0020008605348406862
:10139000524948600846406848600846406840F442
:1013A000806048600846406820F47C104860084629
:1013B000406840F4E81048600846006840F08070DB
:1013C000086000BF4548006800F000700028F9D0B0
:1013D0004248406820F003004049486008464068A1
:1013E00040F00200486000BF3C48406800F00C003C
:1013F0000828F9D10CBD10B5FFF792FF10BD10B54C
:101400003648006840F001003449086008464068EA
:10141000344908403149486008460068324908406C
:101420002E4908600846006820F4802008600846BD
:10143000406820F4FE0048604FF41F008860FFF70A
:10144000DAFF4FF000602949086010BD10B5002197
:1014500000200022214B5B6803F00C0121B104291C
:1014600006D0082928D107E0214B224C236027E031
:101470001F4B204C236023E0184B5B6803F4701073
:10148000164B5B6803F48032022303EB904022B9D1
:10149000194B4343174C23600DE0104B5B6803F47A
:1014A000003323B1144B4343124C236003E0104B31
:1014B0004343104C236003E00D4B0E4C236000BFF0
:1014C00000BF064B5B68C3F303130C4CE15C094B94
:1014D0001B68CB40074C236010BD00000010024089
:1014E000002002400000FFF8FFFFF6FE08ED00E0DC
:1014F00000127A007000002000093D0074000020F6
:101500000648804706480047FEE7FEE7FEE7FEE79D
:10151000FEE7FEE7FEE7FEE7FEE7FEE7FF13000853
:101520003101000831490143314A1160704770B5FB
:10153000002100230F22C47804B32D4C246804F446
:10154000E064C4F5E064210AC1F10403CA404478B0
:1015500004FA03F18478144021430901254C0678EC
:10156000A155047804F01F050124AC4005786D11E5
:10157000AD0005F1E025C5F8004109E0047804F06C
:101580001F050124AC401C4D0678761145F8264015
:1015900070BD1A4A0A400243154B1B1F1A60704760
:1015A00039B1134A121D12680243114B1B1D1A60F8
:1015B00006E00F4A121D126882430D4B1B1D1A6074
:1015C0007047042808D14FF0E021096941F0040177
:1015D0004FF0E022116107E04FF0E021096921F0AE
:1015E00004014FF0E0221161704700000000FA058D
:1015F0000CED00E000E400E080E100E080FFFF1F70
:1016000010B50446CC48844208D10121042000F0E2
:101610002DFB0021042000F029FB46E0C74884424E
:1016200008D10121082000F021FB0021082000F052
:101630001DFB3AE0C248844208D10121102000F08D
:1016400015FB0021102000F011FB2EE0BD48844264
:1016500008D10121202000F009FB0021202000F00A
:1016600005FB22E0B848844208D10121402000F067
:10167000FDFA0021402000F0F9FA16E0B348844258
:1016800008D10121802000F0F1FA0021802000F033
:10169000EDFA0AE0AE48844207D10121801500F03E
:1016A000E5FA0021A01500F0E1FA10BD10B5012106
:1016B000084600F0DBFA0021012000F0D7FA10BD47
:1016C0002DE9F041024600250026002000230024D9
:1016D000002791F803C00CF00F0591F803C00CF03F
:1016E000100CBCF1000F03D091F802C04CEA0505C4
:1016F00091F800C0BCF1000F31D0146800202BE03D
:101700004FF0010C0CFA00F3B1F800C00CEA03062C
:101710009E4220D183004FF00F0C0CFA03F7BC431C
:1017200005FA03FC4CEA040491F803C0BCF1280F4D
:1017300006D14FF0010C0CFA00FCC2F814C00AE00C
:1017400091F803C0BCF1480F05D14FF0010C0CFA21
:1017500000FCC2F810C0401C0828D1D31460B1F8B6
:1017600000C0BCF1FF0F34DD546800202EE000F112
:10177000080C4FF0010808FA0CF3B1F800C00CEAAD
:1017800003069E4221D183004FF00F0C0CFA03F7A1
:10179000BC4305FA03FC4CEA040491F803C0BCF115
:1017A000280F05D100F1080C08FA0CF8C2F81480D3
:1017B00091F803C0BCF1480F07D100F1080C4FF0BD
:1017C000010808FA0CF8C2F81080401C0828CED393
:1017D0005460BDE8F0814FF6FF71018002218170F5
:1017E0000421C17070470246002093680B400BB182
:1017F000012000E0002070470146886880B27047F1
:1018000002460020D3680B400BB1012000E000200D
:1018100070470146C86880B27047016170474161F6
:1018200070470AB1016100E041617047C1607047D3
:101830004FF480320A4382618161826182698269E8
:10184000704702460020434B18684FF680731840DB
:1018500040EA021008433F4B186070473E49C86198
:101860007047F0B50A46002300240021002500F04F
:101870000046B6F1004F02D1364EF16901E0354E17
:101880007168C0F3034583B200F44016B6F5401FFB
:1018900008D121F070612F4E766826F070662D4FCA
:1018A0007E6012E000F48016B6F5801F06D1032694
:1018B00006FA05F4A14341F0706106E0460D3601D9
:1018C00003FA06F6B14341F0706122B1460D3601CC
:1018D00003FA06F6314300F00046B6F1004F02D19C
:1018E0001C4EF16101E01B4E7160F0BD30B500226D
:1018F0008B071C0F0F2303FA04F2164B08338C10CE
:1019000053F824309343134C08348D1044F8253099
:1019100023468C1053F824308C07240F00FA04F46B
:1019200023430C4C08348D1044F8253030BD0A494F
:10193000DC3108607047000000080140000C0140E5
:10194000001001400014014000180140001C01403B
:10195000002001400000014000002042DF480068F4
:1019600040F00100DD49086008464068DC49084055
:10197000DA49486008460068DA490840D7490860F3
:101980000846006820F4802008600846406820F47B
:10199000FE0048604FF41F0088607047CF49096817
:1019A00021F48031CD4A11601146096821F480216B
:1019B0001160B0F5803F03D0B0F5802F0ED106E066
:1019C000C649096841F48031C44A116007E0C3493F
:1019D000096841F4A021C14A116000E000BF00BFC6
:1019E000704710B501460022002300204A11012A49
:1019F00002D1BA4C236806E0022A02D1B74C236A0E
:101A000001E0B64C636A01F01F02012494401C40BF
:101A10000CB1012000E0002010BD38B5002000907E
:101A20000024002500BF3120FFF7DBFF05460098AA
:101A3000401C00900098B0F5A06F01D0002DF2D0AE
:101A40003120FFF7CEFF08B1012400E0002420463A
:101A500038BD01460020A14A106820F0F80040EA95
:101A6000C10010607047A04908607047024600201E
:101A70009A4B586820F47C1042EA01031843974BB4
:101A80005860704798490866704701460020934A9D
:101A9000506820F003000843506070478F4840684A
:101AA00000F00C007047014600208C4A506820F07E
:101AB000F00008435060704701460020874A506894
:101AC00020F4E06008435060704701460020834ADC
:101AD000506820F4605040EAC1005060704729B15E
:101AE0007E4A527A02437D4B5A7204E07B4A527A14
:101AF00082437A4B5A7270477B49D83108607047ED
:101B000001460020754A506820F440400843506068
:101B100070470021714A20321170704A82F82010FB
:101B2000012802D004280AD104E001216B4A2032A6
:101B3000117005E00521694A2032117000E000BFF4
:101B400000BF70476949086070476449096A0143EA
:101B5000624A11627047654944390860704730B580
:101B600000210022002400235C4D6D6805F00C016B
:101B700021B1042905D0082923D105E05C4D056079
:101B800022E05B4D05601FE0544D6D6805F4701256
:101B9000524D6D6805F48034022505EB92421CB964
:101BA000544D554305600BE04C4D6D6805F4003510
:101BB0001DB1504D5543056002E04D4D5543056044
:101BC00002E04B4D056000BF00BF444D6D6805F05D
:101BD000F0010909484D6B5C0568DD4045603F4DEB
:101BE0006D6805F4E061090A434D6B5C4568DD40B2
:101BF00085603A4D6D6805F46051C90A3E4D6B5CD5
:101C00004568DD40C560354D6D6805F44041890B80
:101C10003A4D6B5CC568B5FBF3F5056130BD29B184
:101C20002E4A526902432D4B5A6104E02B4A5269F5
:101C300082432A4B5A61704729B1284A926902436C
:101C4000264B9A6104E0254A92698243234B9A61AC
:101C5000704729B1214AD2690243204BDA6104E07E
:101C60001E4AD26982431D4BDA61704729B11B4A73
:101C7000D2680243194BDA6004E0184AD268824302
:101C8000164BDA60704729B1144A12690243134BAC
:101C90001A6104E0114A12698243104B1A617047BD
:101CA00012494039086070470F49C86470470B49B2
:101CB000C87170470948406A40F08070074948621F
:101CC000704701460020054A92680A400AB1012087
:101CD00000E0002070470149887270470010024000
:101CE0000000FFF8FFFFF6FE00004242800442427F
:101CF00000127A0000093D008400002094000020BA
:101D000010B50446FE48844208D10121C014FFF7F3
:101D1000ADFF0021E014FFF7A9FFC4E0B4F1804F4C
:101D200008D101210846FFF7AEFF00210120FFF78F
:101D3000AAFFB8E0F348844208D101210220FFF74E
:101D4000A2FF00210220FFF79EFFACE0EE48844294
:101D500008D101210420FFF796FF00210420FFF79E
:101D600092FFA0E0E948844208D101210820FFF752
:101D70008AFF00210820FFF786FF94E0E4488442B0
:101D800008D101211020FFF77EFF00211020FFF76E
:101D90007AFF88E0DF48844208D101212020FFF744
:101DA00072FF00212020FFF76EFF7CE0DA488442BA
:101DB00008D101214014FFF759FF00216014FFF7FB
:101DC00055FF70E0D548844209D10121C804FFF7CE
:101DD0004DFF00214FF40020FFF748FF63E0D0489B
:101DE000844209D101210805FFF740FF00214FF48B
:101DF0008010FFF73BFF56E0CA48844209D1012119
:101E00004805FFF733FF00214FF40010FFF72EFFC6
:101E100049E0C548844208D101214020FFF733FF43
:101E200000214020FFF72FFF3DE0C048844208D149
:101E300001218020FFF727FF00218020FFF723FFEB
:101E400031E0BB48844208D101218015FFF71BFF18
:101E50000021A015FFF717FF25E0B648844209D1FD
:101E600001210804FFF702FF00214FF48030FFF743
:101E7000FDFE18E0B048844209D101214804FFF773
:101E8000F5FE00214FF40030FFF7F0FE0BE0AB4809
:101E9000844208D101218804FFF7E8FE00214FF4B5
:101EA0008020FFF7E3FE10BD00220288944B984289
:101EB0000ED0994B98420BD0B0F1804F08D0914B87
:101EC000984205D0904B984202D0904B984204D152
:101ED0004FF68F731A404B881A438D4B984207D0A8
:101EE0008C4B984204D04FF6FF431A40CB881A43DC
:101EF00002808B8883850B880385814B98420BD0A9
:101F0000854B984208D08B4B984205D08A4B98421B
:101F100002D08A4B984201D10B7A03860123838237
:101F2000704770B5002400220023058C4FF6FE7622
:101F300035400584028C8388048B4FF68F752C40C6
:101F4000B51E2C400D882C43751E2A400D892A434E
:101F50004D882A436A4DA8420BD06F4DA84208D045
:101F6000744DA84205D0744DA84202D0734DA842CA
:101F700013D14FF6F7752A404D892A434FF6FB756A
:101F80002A408D882A434FF6FF652B404FF6FF55B8
:101F90002B408D892B43CD892B4383800483CD88AF
:101FA0008586028470BD70B5002400220023058C54
:101FB0004FF6EF7635400584028C8388048B48F613
:101FC000FF752C404FF6FF452C400D884FF6FF76ED
:101FD00006EA05252C434FF6DF752A400D8906EAEF
:101FE00005152A434D8806EA05152A43444DA842A3
:101FF00002D0494DA8421DD14FF67F752A404D8928
:102000004FF6FF7606EA05152A434FF6BF752A40BC
:102010008D8806EA05152A434FF6FF352B404FF20F
:10202000FF752B408D8906EA85052B43CD8906EA8D
:1020300085052B4383800483CD880587028470BD8A
:1020400070B5002400220023058C4FF6FF66354052
:102050000584028C8388848B4FF68F752C404FF655
:10206000FC752C400D882C434FF6FF552A400D89F6
:102070004FF6FF7606EA05252A434D8806EA052530
:102080002A431F4DA84202D0234DA8421DD14FF232
:10209000FF752A404D894FF6FF7606EA05252A434B
:1020A0004FF6FF352A408D8806EA05252A434EF66D
:1020B000FF752B404DF6FF752B408D8906EA0515FF
:1020C0002B43CD8906EA05152B4383808483CD8875
:1020D0008587028470BD70B5002200230024058C22
:1020E0004EF6FF7635400584038C8488828B48F653
:1020F000FF752A404FF6FF452A400D8820E000007A
:10210000002C01400004004000080040000C00408A
:10211000001000400014004000340140004C014019
:10212000005001400054014000180040001C0040D5
:1021300000200040004001400044014000480140B0
:102140004FF6FF7606EA05252A434DF6FF752B402C
:102150000D8906EA05352B434D8806EA05352B43E4
:10216000FA4DA84202D0FA4DA84208D14BF6FF75AD
:102170002C408D894FF6FF7606EA85152C43848026
:102180008283CD88A0F84050038470BD828B4FF2CB
:10219000FF331A408283828B4FF6FF7303EA0123D9
:1021A0001A4382837047F0B50C4615460022002181
:1021B0000026078C4EF6FF7C07EA0C070784828B0B
:1021C000018C4FF6FF7707EA043640F6FF473A40A6
:1021D0004FF6FF7707EA05273A434FF6FF7707EAFE
:1021E00003373A43D94FB8420ED0D94FB8420BD03B
:1021F000B0F1804F08D0D74FB84205D0D64FB84283
:1022000002D0D64FB84206D14DF6FF77394046F49A
:102210008057394305E047F6FF57394044F480576B
:10222000394382830184F0BD828B4FF6F3731A40E9
:102230008283828B0A4382837047F0B50C46154631
:10224000002200210026078C4FF6FF6C07EA0C07DE
:102250000784828B018C4FF6FF7707EA04264FF63E
:102260000C773A404FF6FF7707EA03172F433A43BC
:10227000B64FB8420ED0B64FB8420BD0B0F1804F37
:1022800008D0B44FB84205D0B34FB84202D0B34FD4
:10229000B84206D14FF6FF57394046F480773943AC
:1022A00005E04FF2FF57394044F480773943828389
:1022B0000184F0BD028B4FF2FF331A400283028B80
:1022C0004FF6FF7303EA01231A4302837047F0B508
:1022D0000C461546002200210026078C4FF6EF7CA5
:1022E00007EA0C070784028B018C4FF6FF7707EA99
:1022F000041640F6FF473A404FF6FF7707EA0337E8
:102300003A434FF6FF7707EA05273A438F4FB84223
:102310000ED08F4FB8420BD0B0F1804F08D08D4F08
:10232000B84205D08C4FB84202D08C4FB84206D18B
:102330004FF6DF77394046F01007394305E04FF696
:102340005F77394044F01007394302830184F0BDC0
:10235000028B4FF6F3731A400283028B0A43028307
:102360007047F0B50C46154600220021068C4FF64A
:10237000FE773E400684028B018C4FF60C7632408D
:102380007E1C06EA03162E433243704EB0420ED036
:102390006F4EB0420BD0B0F1804F08D06D4EB042BE
:1023A00005D06D4EB04202D06C4EB04206D14FF611
:1023B000FD76314044F00106314305E04FF6F576F5
:1023C000314044F00106314302830184F0BD70B511
:1023D00005460C465D4885420ED05D4885420BD0CF
:1023E000B5F1804F08D05B48854205D05A488542F8
:1023F00002D05A48854200D100E000BF208850B981
:102400002389A28861882846FFF7ABFFE188284628
:10241000FFF79EFF25E0208804280AD12389A2889F
:1024200061882846FFF753FFE1882846FFF742FFFF
:1024300017E0208808280AD12389A28861882846C5
:10244000FFF7FBFEE1882846FFF7EEFE09E023894F
:10245000A28861882846FFF7A6FEE1882846FFF794
:1024600095FE70BD2DE9F04105460C46002601277A
:10247000608808B9022600E00026A088012801D162
:10248000022700E001272088A0B92389A28861885B
:102490002846FFF766FFE1882846FFF759FF2389A2
:1024A0003A4631462846FFF712FFE1882846FFF7F3
:1024B00001FF13E02389A28861882846FFF707FF00
:1024C000E1882846FFF7F6FE23893A46314628463A
:1024D000FFF747FFE1882846FFF73AFFBDE8F081A4
:1024E0000A884B881A438B881A43CB881A430B8976
:1024F0001A434B891A438B891A43A0F8442070472A
:102500004FF6FF71818000210180C18041800172FE
:1025100070470021018041808180C180018141811B
:102520008181C1817047002101804180012181802A
:102530000021C1800181704700210180418081809C
:10254000C18001814181818170470000002C0140E0
:10255000003401400004004000080040000C00402E
:1025600021B1028842F00102028004E002884FF6A5
:10257000FE731A400280704731B1B0F8442042F433
:102580000042A0F8442005E0B0F84420C2F30E0257
:10259000A0F8442070471AB183890B43838102E07D
:1025A00083898B43838170478182704741EA0203AC
:1025B000A0F8483070471AB183890B43838102E049
:1025C00083898B438381704701894FF6F8721140EC
:1025D000018170470A46002101894FF68F73194027
:1025E00011430181704730B504460D462946204607
:1025F000FFF7F0FF208940F00700208130BD2DE972
:10260000F04104460D4616461F46602D06D13B4656
:10261000012231462046FFF75AFE05E03B460122E3
:1026200031462046FFF79DFE29462046FFF7D2FFA0
:10263000208940F007002081BDE8F08130B50C46CC
:1026400000210189C9B24FF6FF7505EA032515433C
:1026500025432943018130BD2DE9F04105460E4651
:1026600017469846002443463A4631462846FFF727
:10267000E5FF2C894FF6F870044044F007044FF64C
:102680008F70044044F070042C81BDE8F081F0B5F7
:1026900004460D4616461F463B463246294620460E
:1026A000FFF7CCFF208940F480402081F0BD0185F8
:1026B000828270470A46002101884FF68F731940C5
:1026C000114301807047F0B50C4615461E460021A7
:1026D000002200230189028B038C4FF6F8773940E2
:1026E00021434FF6FC473A4040F201173A434FF678
:1026F000DD773B404FF6FF7707EA06172F433B4352
:10270000018102830384F0BD0A460021018B4FF64C
:102710008F7319401143018370470A460021018BD2
:1027200048F6FF7319404FF6FF7303EA022319437B
:10273000018370470A460021818B4FF68F73194041
:102740001143818370470A460021818B48F6FF734D
:1027500019404FF6FF7303EA022319438183704740
:1027600021B1028842F08002028004E002884FF624
:102770007F731A400280704721B1828842F00402C0
:10278000828004E082884FF6FB731A408280704793
:1027900021B1828842F00802828004E082884FF6EC
:1027A000F7731A408280704721B1828842F001029B
:1027B000828004E082884FF6FE731A408280704760
:1027C0000A460021018B4FF6F7731940114301832C
:1027D00070470A460021018B4FF2FF7319404FF6F4
:1027E000FF7303EA02231943018370470A4600215D
:1027F000818B4FF6F77319401143818370470A4666
:102800000021818B4FF2FF7319404FF6FF7303EAEB
:1028100002231943818370470A460021018B4FF63A
:10282000FB7319401143018370470A460021018B55
:102830004FF6FF3319404FF6FF7303EA02231943A3
:10284000018370470A460021818B4FF6FB731940C4
:102850001143818370470A460021818B4FF6FF3375
:1028600019404FF6FF7303EA02231943818370472F
:102870000A460021018B4FF67F73194011430183F3
:1028800070470A460021018BC1F30E014FF6FF731A
:1028900003EA02231943018370470A460021818B12
:1028A0004FF67F7319401143818370470A46002118
:1028B000818BC1F30E014FF6FF7303EA0223194324
:1028C000818370470A460021018C4FF6FD73194041
:1028D0001143018470470A460021018C4FF6F773BB
:1028E00019401143018470470A460021018C4FF6BC
:1028F000DF7319404FF6FF7303EA02131943018493
:1029000070470A460021018C4FF67F7319404FF63D
:10291000FF7303EA02131943018470470A4600213A
:10292000018C4FF6FF5319404FF6FF7303EA022361
:102930001943018470470A460021018C4FF2FF734E
:1029400019404FF6FF7303EA0223194301847047CD
:102950000A460021018C4DF6FF7319404FF6FF73B4
:1029600003EA023319430184704730B50023012480
:102970008C40A3B2048C9C430484048C02FA01F5BD
:10298000ADB22C43048430BD30B5002304248C4008
:10299000A3B2048C9C430484048C02FA01F5ADB20A
:1029A0002C43048430BD70B5034600200024184633
:1029B000183001258D40ACB21D8CA5431D8409B192
:1029C000082909D100EB6100056825F07005056054
:1029D0000568154305600EE00D1FC5F34E0528443C
:1029E000056825F4E045056005684FF6FF7606EAC0
:1029F00002263543056070BD21B1028842F0020213
:102A0000028004E002884FF6FD731A40028070478E
:102A100021B1028842F00402028004E002884FF6ED
:102A2000FB731A400280704721B1828842F0800215
:102A3000828004E082884FF67F731A40828070475C
:102A400002884FF6F7731A40028002880A43028018
:102A5000704782884FF68F731A40828082880A43BB
:102A60008280704702894FF6F8731A40028102890A
:102A70000A430281704702894FF67F731A40028130
:102A800002890A43028170478184704781857047BB
:102A9000818670470187704781877047A0F8401092
:102AA000704702884FF6FF431A40028002880A43AB
:102AB000028070470146888E70470146088F704734
:102AC0000146888F70470146B1F8400070470146C3
:102AD000888C70470146088D704702460020138A93
:102AE0000B400BB1012000E000207047CA43028276
:102AF000704730B50246002000230024158A05EAFD
:102B00000103958905EA010413B10CB1012000E02D
:102B1000002030BDCA4302827047000010B5044651
:102B2000FB48844209D101218803FFF79FF8002167
:102B30004FF48040FFF79AF832E0F648844209D11A
:102B400001214804FFF79FF800214FF40030FFF700
:102B50009AF825E0F048844209D101218804FFF762
:102B600092F800214FF48020FFF78DF818E0EB4831
:102B7000844209D10121C804FFF785F800214FF4F0
:102B80000020FFF780F80BE0E548844208D10121DE
:102B90000805FFF778F800214FF48010FFF773F86D
:102BA00010BD2DE9F04786B005460E460024A2462A
:102BB00000BFA1460027B08900B100BF2F462C8A74
:102BC0004CF6FF700440F08804432C82AC894EF62A
:102BD000F3100440B08831890843718908430443E5
:102BE000AC81AC8A4FF6FF400440B0890443AC820C
:102BF00001A8FEF7B4FFC648874202D1DDF810A055
:102C000001E0DDF80CA0A88900F4004040B10AEB17
:102C1000CA0000EB0A1031684900B0FBF1F807E088
:102C20000AEBCA0000EB0A1031688900B0FBF1F82A
:102C30006420B8FBF0F004012009642101FB108935
:102C4000A88900F4004040B1322000EBC900B0FB7D
:102C5000F1F000F00700044308E0322000EB091017
:102C60006421B0FBF1F000F00F0004432C8106B0AA
:102C7000BDE8F0874FF41651016000218180C180CA
:102C800001810C21418100218181704710B50246EC
:102C90000020108A4FF2FF0318400B884C88234312
:102CA0008C882343CC8823431843108210BD002115
:102CB000018041808180C180704721B1828942F4C6
:102CC0000052828104E082894DF6FF731A408281AE
:102CD0007047F0B50346002400260025002040F68A
:102CE0006A17B94200D100BF1846C1F3421401F07F
:102CF0001F06012707FA06F5012C01D10C3004E06C
:102D0000022C01D1103000E014301AB107682F43B3
:102D1000076002E00768AF430760F0BD1AB1838A1D
:102D20000B43838202E0838A8B4383827047028A4B
:102D30004FF6F0731A400282028A0A4302827047F9
:102D400082894FF2FF731A40828182890A4382810D
:102D5000704721B1828942F00202828104E08289B7
:102D60004FF6FD731A4082817047028A4FF6DF7377
:102D70001A400282028A0A430282704721B1028A03
:102D800042F48042028204E0028A4BF6FF731A404A
:102D900002827047C1F3080282807047014688882A
:102DA000C0F308007047818941F0010181817047BB
:102DB000028BD2B20283028B42EA01220283704765
:102DC000028B02F47F420283028B0A430283704724
:102DD00021B1828A42F02002828204E0828A4FF688
:102DE000DF731A408282704721B1828A42F010025A
:102DF000828204E0828A4FF6EF731A408282704723
:102E000021B1828A42F00802828204E0828A4FF66F
:102E1000F7731A408282704721B1828942F40042DE
:102E2000828103E08289C2F30E028281704721B160
:102E3000828A42F40062828204E0828A4FF2FF7347
:102E40001A4082827047828A4FF6FB731A40828250
:102E5000828A0A438282704721B1828A42F002024A
:102E6000828204E0828A4FF6FD731A4082827047A4
:102E700002460020B1F5007F00D100BF13880B404F
:102E80000BB1012000E00020704701F40072B2F5A0
:102E9000007F00D100BFCA430280704770B5024670
:102EA000002400230025002040F66A16B14200D11C
:102EB00000BFC1F3421501F01F03012606FA03F318
:102EC000012D02D19689334006E0022D02D1168AE7
:102ED000334001E0968A33400C12012606FA04F4CE
:102EE0001688344013B10CB1012000E0002070BD01
:102EF00010B50022002340F66A14A14200D100BFA1
:102F00000A1201249440A3B2DC43048010BD0000E7
:102F1000003801400044004000480040004C0040A0
:102F20000050004030B50B4601460020202201240D
:102F300009E021FA02F59D4205D303FA02F5491B87
:102F400004FA02F52844151EA2F10102F1DC30BD9D
:102F5000064C074D06E0E06840F0010394E80700E6
:102F600098471034AC42F6D3FDF7E6F80831000874
:102F7000283100080FB4054B10B503A9044A029884
:102F800000F018F810BC5DF814FB000045010008C3
:102F90009800002002E008C8121F08C1002AFAD1D8
:102FA00070477047002001E001C1121F002AFBD1C9
:102FB000704700002DE9FF4F89B09B46044600256D
:102FC00006E025280BD05A460B999047641C6D1CCF
:102FD00020780028F5D10DB02846BDE8F08F0027F5
:102FE000B8460122474900E0074314F8013F203B5F
:102FF00002FA03F00842F7D120782E2819D114F8EC
:10300000010F47F004072A280ED06FF02F02207816
:10301000A0F1300109290CD808EB880102EB41012D
:1030200000EB0108641CF2E70A98641C50F8048B5A
:103030000A9020780028CED0642808D0692806D0CD
:1030400075281ED05A460B9990476D1C58E00A9976
:103050004FF00A0901C90A91002802DA40422D21E5
:1030600002E0390504D52B218DF82010012103E061
:10307000F90704D02021F7E78A4608AE0DE00021C9
:10308000FAE70A994FF00A0901C90A91F7E7494698
:10309000FFF748FF303106F8011D0028F7D1ADEBEE
:1030A000060000F12009780701D44FF00108C84557
:1030B00002DDA8EB090000E000208046002706E0C2
:1030C00008A85A46C05D0B9990476D1C7F1C574558
:1030D000F6DB04E030205A460B9990476D1CB8F19E
:1030E0000001A8F10108F5DC05E016F8010B5A46CD
:1030F0000B9990476D1CB9F10001A9F10109F4DCAD
:10310000641C65E709280100283100080000002040
:103110009C000000942F0008C43100089C0000208F
:1031200004040000A42F00080000010000000000BB
:10313000000000000000000000000000000000008F
:10314000000000000000000000000000000000007F
:1031500000000000000000000000000030303030AF
:10316000303030303030000000000000000000003F
:103170000000000001010100D00700000000000075
:10318000000000000000000000000000000000003F
:10319000010000000000000000A24A04000000003E
:1031A00000000000010203040607080900000000F7
:1031B00001020304010203040607080902040608C9
:0431C000000000000B
:0400000508000131BD
:00000001FF
